:040000008031222801
:100008007E1480310B1F20284E01991B8F1F10284A
:100018008231232280312028191B0F1F14281F2802
:10002800991E18288F1A2028991F1C288F1B0C2806
:10003800191A0F1E20280F127E100900803124285B
:10004800F701F801F901FA01483084000030850011
:100058001A308331AD238031A03084000030850010
:100068003C308331AD23803120308400013085005D
:1000780019308331AD237E10400180314328203070
:100088008600003087001430F60000301E00F60BA2
:100098004A2834308600003087001430F6000030DB
:1000A8001E00F60B54288131FE2180318231CD2289
:1000B800803182319D2280318B170B1740019912B4
:1000C80040010E186D28E101E10A0E1C6928E101C2
:1000D800E10A8E187628E10183317B2380314001C3
:1000E8008E1C73280E1983282030823146228031D5
:1000F800343082316422803140010E1D80288331E2
:10010800C5238031003A03198E28203082314622D7
:10011800803199128331C3238031003A031964284E
:10012800400119123430823164228031BD30F2002E
:100138008330F3003430F4008131D32180317208E8
:10014800730403196029B830F2008330F3003430A7
:10015800F4008131D32180317208730403196029B6
:10016800B330F2008330F3003430F4008131D3210E
:10017800803172087304031DC928B330F30083303B
:10018800F4008231E42280318D298A30F2008330F4
:10019800F3003430F4008131D321803172087304C4
:1001A800031DDA285F30F300833089299130F2008B
:1001B8008330F3003430F4008131D3218031720868
:1001C8007304031DEB289830F30083308929F83035
:1001D800F2008230F3003430F4008131D3218031D1
:1001E80072087304031D0029D230F3008130F40033
:1001F8008231E42280318D292330F2008330F300EC
:100208003430F4008131D32180317208730403192A
:1002180060294B30F2008330F3003430F400813130
:10022800D321803172087304031960295530F20014
:100238008330F3003430F4008131D32180317208E7
:100248007304031960294130F2008330F30034301D
:10025800F4008131D32180317208730403196029B5
:100268002D30F2008330F3003430F4008131D32193
:10027800803172087304031960293730F200833023
:10028800F3003430F4008131D321803172087304D3
:10029800031D6F2940016108031964299330F30095
:1002A8008130F4008231E42280318330F3008330DE
:1002B800F4008231E4228031D230F3008130892980
:1002C800D230F3008130F40082318122803117303E
:1002D800F30083308929B630F2008230F3003430DD
:1002E800F4008131D321803172087304031D9029F1
:1002F8008331C3238031003A03197C293430823199
:10030800642280310A30F3008330F4008231812284
:1003180080318331A62380314001191664280D34B9
:100328000A342B3443344D34473452343A3430345D
:100338002C342234523445344334203455344E342A
:10034800523445344134443422342C3422342B344E
:100358003434313437343934333430343134383454
:1003680032343534363422342C342C34223432347A
:1003780033342F34303431342F34303431342C3456
:10038800323432343A34313430343A34303430342C
:100398002B343034383422340D340A340034E32911
:1003A800720884007308850012000319EE290130D1
:1003B800F2070030F33D0130F5007508F4077408C2
:1003C800860087017208840073088500000801060A
:1003D8000319D42972088400730885000008F50001
:1003E80074088600870101087502F200F301031CF6
:1003F800F3030800603051018D000D088F39603813
:100408008D008F019101033093007E01B801C30173
:10041800CE01FF30400198003F3099009A019201C7
:10042800C83093008730940011307E019A000F3055
:10043800A6000B307D01CD001730CB0008008331BA
:10044800C0238231F10071080319432A0D30710667
:10045800031D372A7708483E860087018101F80185
:10046800F80AF70108007708483E860087017108F6
:1004780081000130F0007008F707F8010800F80162
:10048800F7010800F300F4017408C83E86008701EC
:100498000A3001060319622A730886008701740866
:1004A800C83E84008501000881000130F20072080E
:1004B800F3070130F2007208F407482AFA0108002D
:1004C800F300F4017408483E860087010108031907
:1004D8007F2A7308860087017408483E84008501D6
:1004E800000881000130F2007208F3070130F200C1
:1004F8007208F407662AF801080073088400740873
:10050800850012000319952A730884007408850071
:1005180000088331692382310130F3070030F43D4C
:10052800812A0D308331692382310A30833169236E
:100538000800991354011E139E161E129E111E15B3
:100548001E1040019315131154019D171D131D16FC
:1005580000309C0010309B009F151F1283317323BD
:1005680099170800413454342B3443344D344734FC
:1005780053343D3422342B34343431343734393421
:100588003334303431343834323435343634223438
:10059800003442011E139E161E129E111E151E10B7
:1005A80040019417141342019D171D131D160030A6
:1005B8009C0010309B009F151F124E0199160800D1
:1005C8007308840074088500120003190800730872
:1005D8008400740885000008833169238231013062
:1005E800F3070030F43DE42A413454342B344334C7
:1005F8004E344D3449343D3430342C3430342C347A
:1006080030342C3430342C34313400342A344334EC
:1006180046342B3443344D34473453343A3420343D
:100628003734333400342B3443344D344734523464
:100638003A34203430342C342C34303400344134BF
:1006480054342B3443344D34473444343D343134FA
:100658000034413454342B3443344D344734463415
:100668003D3431340034413454342B3443344D3424
:10067800473452343D3431340034413454342B340B
:1006880043344D34473456343D34313400344134E6
:1006980054342B3443344D34473444343D343234A9
:1006A8000034413454342B3443344D3447344434C7
:1006B8003D3433340034433469346E34743465342F
:1006C800723469346F346E340034F2004E010F1FF7
:1006D8006A2B720854019A009E180800702B4E016C
:1006E80099134001C801F8014E01991708004E01FD
:1006F80099124101C801FA014E01991608003434D3
:1007080031343334393420343F34003441345434B0
:100718002B3447344D3449340034413454342B3469
:1007280047344D344D340034423447345334323432
:100738002D34573400340D340A344F344B340D34CF
:100748000A3400349F30F3008330F4008231E4220D
:100758000800640080010131890BAE2B003441345C
:100768005434453430340034413454342634463417
:10077800003441345434003454011908080078080E
:0607880008007A080800D9
:020000040001F9
:08000000FF3FFF3FFF3FFF3F00
:0A000E00EC3FFF3F9F3FFF3FFF3F25
:00000001FF
