:040000008031222801
:100008007E1480310B1F20284E01991B8F1F10284A
:100018008231242280312028191B0F1F14281F2801
:10002800991E18288F1A2028991F1C288F1B0C2806
:10003800191A0F1E20280F127E100900803124285B
:10004800F701F801F901FA01483084000030850011
:1000580015308331B0238031A03084000030850012
:1000680041308331B0238031203084000130850055
:1000780019308331B0237E1040018031432820306D
:100088008600003087001430F60000301E00F60BA2
:100098004A2834308600003087001430F6000030DB
:1000A8001E00F60B54288131FF2180318231D02285
:1000B800803182319E2280318B170B1740019912B3
:1000C80040010E186D28DC01DC0A0E1C6928DC01D1
:1000D800DC0A8E187628DC0183317E2380314001CA
:1000E8008E1C73280E1983282030823147228031D4
:1000F800343082316522803140010E1D80288331E1
:10010800C8238031003A03198F28203082314722D2
:100118008031400199128331C6238031003A031996
:100128006428400119123430823165228031C03090
:10013800F2008330F3003430F4008131D42180316F
:100148007208730403196129BB30F2008330F3008D
:100158003430F4008131D4218031720873040319DA
:100168006129B630F2008330F3003430F400813175
:10017800D421803172087304031DCA28B630F300F5
:100188008330F4008231E72280318E298D30F200ED
:100198008330F3003430F4008131D4218031720887
:1001A8007304031DDB286230F30083308A299430FE
:1001B800F2008330F3003430F4008131D4218031EF
:1001C80072087304031DEC289B30F30083308A29DE
:1001D800FB30F2008230F3003430F4008131D42156
:1001E800803172087304031D0129D330F300813074
:1001F800F4008231E72280318E292630F2008330E4
:10020800F3003430F4008131D42180317208730452
:10021800031961294E30F2008330F3003430F400C2
:100228008131D4218031720873040319612958304F
:10023800F2008330F3003430F4008131D42180316E
:1002480072087304031961294430F2008330F30003
:100258003430F4008131D4218031720873040319D9
:1002680061293030F2008330F3003430F4008131FA
:10027800D421803172087304031961293A30F200DD
:100288008330F3003430F4008131D4218031720896
:100298007304031D702940015C0803196529943013
:1002A800F3008130F4008231E72280318630F30098
:1002B8008330F4008231E7228031D330F30081307B
:1002C8008A29D330F3008130F400823182228031D0
:1002D8001A30F30083308A29B930F2008230F300F3
:1002E8003430F4008131D421803172087304031D45
:1002F80091298331C6238031003A03197D2934308E
:100308008231652280310D30F3008330F400823170
:10031800822280318331A923803140011916642853
:100328000D340A342B3443344D34473452343A3480
:1003380030342C3422345234453443342034553448
:100348004E34523445344134443422342C3422342B
:100358002B34343431343734393433343034313461
:10036800383432343534363422342C342C34223474
:10037800323433342F34303431342F343034313450
:100388002C34323432343A34313430343A34303430
:1003980030342B343034383422340D340A340034B9
:1003A800E429720884007308850012000319EF29F4
:1003B8000130F2070030F33D0130F5007508F4070D
:1003C8007408860087017208840073088500000895
:1003D80001060319D52972088400730885000008EE
:1003E800F50074088600870101087502F200F30120
:1003F800031CF3030800603051018D000D088F398C
:1004080060388D008F019101033093007E01B8019F
:10041800C301CE01FF30400198003F3099009A0196
:100428009201C83093008730940011307E019A0001
:100438000F30A6000B307D01CD001730CB0008002F
:100448008331C3238231F10071080319442A0D3026
:100458007106031D382A7708A03E860087018101AE
:10046800F801F80AF70108007708A03E860087011E
:10047800710881000130F0007008F707F8010800E2
:10048800F801F7010800F300F4017408483E8600FB
:1004980087010A3001060319632A73088600870159
:1004A8007408483E84008501000881000130F2008C
:1004B8007208F3070130F2007208F407492AFA01BA
:1004C8000800F300F4017408A03E860087010108C3
:1004D8000319802A7308860087017408A03E8400E7
:1004E8008501000881000130F2007208F30701302D
:1004F800F2007208F407672AF801080073088400FC
:100508007408850012000319962A73088400740879
:100518008500000883316C2382310130F3070030F5
:10052800F43D822A0D3083316C2382310A308331C5
:100538006C2308004E01991354011E139E161E12B7
:100548009E111E151E1040019315131154019D177D
:100558001D131D1600309C0010309B009F151F12A4
:10056800833176234E0199170800413454342B34D3
:1005780043344D34473453343D3422342B343434EB
:100588003134373439343334303431343834323424
:10059800353436342234003442011E139E161E129E
:1005A8009E111E151E1040019417141342019D1729
:1005B8001D131D1600309C0010309B009F151F1244
:1005C8004E0199160800730884007408850012000B
:1005D8000319080073088400740885000008833133
:1005E8006C2382310130F3070030F43DE72A4134AF
:1005F80054342B3443344E344D3449343D34303440
:100608002C3430342C3430342C3430342C343134D1
:1006180000342A34433446342B3443344D3447347D
:1006280053343A3420343734333400342B3443349D
:100638004D34473452343A34203430342C342C344A
:1006480030340034413454342B3443344D3447343B
:1006580044343D3431340034413454342B3443343D
:100668004D34473446343D34313400344134543405
:100678002B3443344D34473452343D343134003410
:10068800413454342B3443344D34473456343D3498
:1006980031340034413454342B3443344D344734EA
:1006A80044343D3432340034413454342B344334EC
:1006B8004D34473444343D3433340034433469349E
:1006C8006E3474346534723469346F346E34003483
:1006D800F2004E010F1F6D2B720854019A009E18EC
:1006E8000800732B4E0199134101A001F8014E0136
:1006F800991708004E0199124001C801FA014E01EC
:1007080099160800343431343334393420343F34C2
:100718000034413454342B3447344D344934003494
:10072800413454342B3447344D344D34003442343E
:100738004734533432342D34573400340D340A34AA
:100748004F344B340D340A340034A230F300833074
:10075800F4008231E7220800640080010131890B2E
:10076800B12B0034413454344534303400344134EE
:10077800543426344634003441345434003454015B
:0C07880019080800780808007A0808002A
:020000040001F9
:08000000FF3FFF3FFF3FFF3F00
:0A000E00EC3FFF3F9F3FFF3FFF3F25
:00000001FF
