:0400000080313F28E4
:100008007E1480310B1F09280A283D284E01991FAC
:100018000E280F2817288F1F122813281728823117
:10002800C12280313D28191F1A281B2821280F1F9B
:100038001E281F2821280F123D28991E242825280C
:100048002A288F1E282829282A283D28991F2D2844
:100058002E2833288F1F3128322833281328191EB9
:10006800362837283D280F1E3A283B283D280F12EE
:100078003D287E10090080314128F701F801F90177
:10008800FA01483084000030850015308431862418
:100098008031A030840000308500413084318624CE
:1000A8008031203084000130850019308431862465
:1000B80080317E1040018031612820308600003078
:1000C80087001430F60000301E00F60B6828343024
:1000D8008600003087001430F60000301E00F60B52
:1000E80072288231E82280318331B523803183310F
:1000F8006B2380318B170B174001991240010E18A2
:10010800862887288F28DC01DC0A0E1C8C288D287D
:100118008928DC01DC0A8E18922893289C28DC01A7
:1001280084315B24803140018E1C9B289C289728B1
:100138000E199F28A028AD28203083310D23803147
:10014800343083314C23803140010E1DAC28AD285A
:10015800A82884319E248031003A0319B428B52890
:10016800BB28203083310D2380314001991284311E
:100178009C248031003A0319C228C32882284001F0
:100188001912343083314C2380319630F200843098
:10019800F3003430F4008231922280317208730403
:1001A800031DD728D828E3289130F3008230F400C3
:1001B80083312D23803184314B2480314D2A913075
:1001C800F2008430F3003430F4008231922280311E
:1001D80072087304031DF128F228FD289130F300FA
:1001E8008230F40083312D23803184314B248031D7
:1001F8004D2A8C30F2008430F3003430F400823120
:100208009222803172087304031D0B290C291729C7
:100218008C30F3008430F40083319E2380318431A4
:100228004B2480314D2A6A30F2008430F300343098
:10023800F40082319222803172087304031D25294B
:10024800262931294130F3008430F40083312D23ED
:10025800803184314B2480314D2A7130F200843052
:10026800F3003430F4008231922280317208730432
:10027800031D3F2940294B297830F3008430F400CE
:1002880083312D23803184314B2480314D2ACC3069
:10029800F2008330F3003430F4008231922280314E
:1002A80072087304031D59295A2965299130F300EE
:1002B8008230F40083319E23803184314B24803195
:1002C8004D2A0530F2008430F3003430F4008231D6
:1002D8009222803172087304031D732974297F29BF
:1002E8009130F3008230F40083312D238031843142
:1002F8004B2480314D2A2D30F2008430F300343005
:10030800F40082319222803172087304031D8D2912
:100318008E2999299130F3008230F40083312D23FE
:10032800803184314B2480314D2A3730F2008430BB
:10033800F3003430F4008231922280317208730461
:10034800031DA729A829B3299130F3008230F400AE
:1003580083312D23803184314B2480314D2A233041
:10036800F2008430F3003430F4008231922280317C
:1003780072087304031DC129C229CD299130F300E5
:100388008230F40083312D23803184314B24803135
:100398004D2A0F30F2008430F3003430F4008231FB
:1003A8009222803172087304031DDB29DC29E729B6
:1003B8009130F3008230F40083312D238031843171
:1003C8004B2480314D2A1930F2008430F300343048
:1003D800F40082319222803172087304031DF529DA
:1003E800F629272A40015C080319FB29FC29152A4C
:1003F8005230F3008230F40083319E238031633021
:10040800F3008430F40083319E2380319130F3006F
:100418008230F40083312D23803184314B248031A4
:100428004D2A9130F3008230F40083312D2380313E
:10043800F930F3008330F40083312D238031843187
:100448004B2480314D2A8730F2008330F30034305A
:10045800F40082319222803172087304031D352A18
:10046800362A4D2A84319C248031003A03193D2ACA
:100478003E2A362A343083314C238031EC30F30065
:100488008330F40083312D23803184314B24803133
:100498004D2A40011916822880313F280D340A342C
:1004A8002B3443344D34473452343A3430342C34BA
:1004B8002234523445344334203455344E34523483
:1004C80045344134443422342C3422342B343434EB
:1004D80031343734393433343034313438343234D5
:1004E8003534363422342C342C34223432343334F8
:1004F8002F34303431342F34303431342C343234D6
:1005080032343A34313430343A34303430342B34B1
:100518003034383422340D340A3400349B2A013004
:10052800F2070030F33D0130F5007508F407740850
:100538008600870172088400730885000008010698
:10054800031DA72AA82AB12A720884007308850007
:100558001200031DB02AB12A932A72088400730876
:1005680085000008F50074088600870101087502F7
:10057800F200F301031CF30308008431992482314B
:10058800F10071080319C92ACA2AE52A0D30710633
:10059800031DCF2AD02AD92A7708A03E86008701D2
:1005A8008101F801F80AF701E72A7708A03E8600DA
:1005B8008701710881000130F0007008F707F80121
:1005C800E72AF801F7010800603051018D000D0895
:1005D8008F3960388D008F019101033093007E01BF
:1005E800B801C301CE01FF30400198003F309900A7
:1005F8009A019201C83093008730940011307E012F
:100608009A000F30A6000B307D01CD001730CB00CB
:100618000800F300F401212B730886008701740891
:10062800483E84008501000881000130F20072080C
:10063800F3070130F2007208F4077408483E860098
:1006480087010A300106031D2A2B2B2B102BFA01D8
:1006580008003A2B73088400740885000008833169
:10066800DE2383310130F3070030F43D7308840042
:10067800740885001200031D422B432B2E2B0D30CE
:100688008331DE2383310A308331DE23833108004E
:10069800F300F401602B7308860087017408A03EFC
:1006A80084008501000881000130F2007208F30718
:1006B8000130F2007208F4077408A03E8600870132
:1006C8000108031D682B692B4F2BF80108004E0108
:1006D800991354011E139E161E129E111E151E10EC
:1006E80040019315131154019D171D131D16003059
:1006F8009C0010309B009F151F12843153248331B6
:100708004E0199170800413454342B3443344D3486
:10071800473453343D3422342B3434343134373471
:10072800393433343034313438343234353436347F
:1007380022340034AB2B7308840074088500000849
:100748008331DE2383310130F3070030F43D730831
:100758008400740885001200031DB32BB42B9F2B53
:10076800080042011E139E161E129E111E151E1011
:1007780040019417141342019D171D131D160030D4
:100788009C0010309B009F151F124E0199160800FF
:10079800413454342B3443344E344D3449343D348D
:1007A80030342C3430342C3430342C3430342C3431
:1007B80031340034F2004E010F1FE32BE42BDF2B02
:1007C800720854019A009E1CEA2BEB2BE72B0800B9
:1007D8002A34433446342B3443344D344734533469
:1007E8003A3420343734333400342B3443344D34E2
:1007F800473452343A34203430342C342C343034A6
:100808000034413454342B3443344D344734443465
:100818003D3431340034413454342B3443344D3472
:10082800473446343D3431340034413454342B3465
:1008380043344D34473452343D3431340034413438
:1008480054342B3443344D34473456343D343134E6
:100858000034413454342B3443344D344734443415
:100868003D3432340034413454342B3443344D3421
:10087800473444343D3433340034433469346E34BB
:1008880074346534723469346F346E3400347F30B4
:10089800F3008430F40083319E23843108004E0134
:1008A80099134101A001F8014E01991708004E0162
:1008B80099124001C801FA014E0199160800343412
:1008C80031343334393420343F34003441345434EF
:1008D8002B3447344D3449340034413454342B34A8
:1008E80047344D344D340034423447345334323471
:1008F8002D34573400340D340A344F344B340D340E
:100908000A340034640080010131890B872C0034DB
:10091800413454344534303400344134543426346A
:100928004634003441345434003454011908080062
:08093800780808007A080800A5
:020000040001F9
:08000000FF3FFF3FFF3FFF3F00
:0A000E00EC3FFF3F9F3FFF3FFF3F25
:00000001FF
